:020000040800F2
:10000000300C002001010008230E0008FD0A000842
:10001000210E00089F0100080110000800000000E8
:10002000000000000000000000000000470E000873
:10003000A101000800000000450E0008490E00085C
:100040001B0100081B0100081B0100081B01000820
:100050001B0100081B0100081B0100081B01000810
:100060001B0100081B0100081B0100081B01000800
:100070001B0100081B0100081B0100081B010008F0
:100080001B0100081B0100081B0100081B010008E0
:100090001B0100081B0100081B0100081B010008D0
:1000A0001B0100081B0100081B0100081B010008C0
:1000B0001B0100081B0100081B0100081B010008B0
:1000C0001B0100081B0100081B0100081B010008A0
:1000D0001B0100081B0100081B0100081B01000890
:1000E0001B0100081B0100081B010008DFF80CD0F1
:1000F00000F018F8004800471D110008300C0020DF
:100100000648804706480047FEE7FEE7FEE7FEE7B1
:10011000FEE7FEE7FEE7FEE7FEE7FEE7C10E0008AA
:10012000ED000008064C074D06E0E06840F00103D2
:1001300094E8070098471034AC42F6D3FFF7DAFF93
:10014000141400083414000870B58C1810F8015B02
:1001500015F0070301D110F8013B2A1106D110F860
:10016000012B03E010F8016B01F8016B5B1EF9D164
:100170002B0705D40023521E0DD401F8013BFAE7EA
:1001800010F8013BCB1A921C03E013F8015B01F855
:10019000015B521EF9D5A142D8D3002070BDFEE705
:1001A0007047000001B581B00449019848430090B0
:1001B000002801D0401EFAE70CBD000080FC0A00B8
:1001C00031B500F0EFF8009C0546601C00D0641CBF
:1001D00000F0E8F8401BA042FAD338BD2DE9F84FF3
:1001E000DFF890A100220AF1040B144601274FF01A
:1001F0000F090BF1040E00BF0B6807FA04F52B4042
:10020000AB4274D1DFF870C14E68A6EB0C086645AE
:100210002BD00DDC032E34D005DC36B3012E19D0E3
:10022000022E2FD11BE0112E16D0122E2AD119E04A
:10023000B8F5881F19D006DCB8F5803F15D0B8F5A1
:10024000801F1FD111E0B8F5001F0ED0B8F5041FB4
:1002500018D10AE0CA6815E0CA68121D12E0CA681F
:1002600008320FE0CA680C320CE08A682AB1012A11
:100270004FF0080203D0456104E0042202E005616A
:1002800000E00022FF2B01D8064601E000F1040641
:100290004FEA840501D9A5F12005D6F800C009FA76
:1002A00005F82CEA080C02FA05F54CEA050CC6F82C
:1002B00000C04D68ED0057D5304DAE6946F00106DF
:1002C000AE61AD6924F0030605F0010500952C4DE3
:1002D00006EB050CDCF80850A6074FEA167809FA79
:1002E00008F6B543274EB04202D1002610E03BE0AD
:1002F000254EB04201D101260AE0244EB04201D180
:10030000022605E0224EB04201D1032600E0042679
:1003100006FA08F62E43CCF808604D68DAF800605B
:10032000ED03554601D51E4300E09E432E604D6807
:10033000DBF80060AD035D4601D51E4300E09E433F
:100340002E604D68DEF80060ED02754601D51E4353
:1003500000E09E432E604D68AD020E4D2E6801D523
:100360001E4300E09E432E60641C102CFFF444AF3B
:10037000BDE8F88F00040140000011100010024099
:100380000000014000080140000C01400010014045
:10039000001401400C0401400AB1016170470904D6
:1003A000FBE700000148006870470000E0070020FC
:1003B00002480168491C016070470000E007002006
:1003C000074810B5016841F010010160032000F0FA
:1003D0007FF8002000F006F800F018F8002010BDAB
:1003E0000020024010B5044607484FF47A710068B7
:1003F000B0FBF1F000F013FB00222146501E00F08C
:1004000047F8002010BD0000E40700201E4808B592
:10041000816941F001018161806900F00100009073
:10042000032000F055F8002211466FF00B0000F099
:100430002FF8002211466FF00A0000F029F8002280
:1004400011466FF0090000F023F800221146501FFA
:1004500000F01EF800221146101F00F019F80022CB
:100460001146901E00F014F800221146501E00F0B4
:100470000FF80648416821F0E0614160416841F0B1
:100480000071416008BD0000001002400000014002
:10049000F0B40E4B1B680C46C3F30223C3F10705EF
:1004A000042D00D90425191D072901D2002300E0DD
:1004B000DB1E012606FA05F1491E214099409E40A7
:1004C000761E16403143F0BC00F0ACBC0CED00E0F1
:1004D000064900F0070208684FF6FF03184040EA9B
:1004E0000220034A10430860704700000CED00E052
:1004F0000000FA052DE9F047DFF83C8105460E467D
:10050000D8F8000000F00700B0420CD2D8F8001074
:1005100021F007013143C8F80010D8F8000000F0BE
:100520000700B04263D12878444C800705D5606845
:10053000A96820F0F000084360602878C00745D023
:100540006868012816D02168022816D0890700297A
:100550004DDA616821F0030101436160FFF722FF7A
:100560006968074641F2883001290FD00229814687
:1005700019D027E021688903E9E78901E7E700BF8F
:10058000FFF710FFC11B494501D918E0814660689B
:10059000C0F381000128F3D118E000BFFFF702FF8C
:1005A000C11B49450BD86068C0F381000228F5D112
:1005B0000CE000BFFFF7F6FEC11B494502D903203E
:1005C000BDE8F087606810F00C0FF3D1D8F8001088
:1005D000404601F00701B1420BD9016821F0070143
:1005E00031430160006800F00700B04201D00120F3
:1005F000E6E72878400705D56068E96820F4E06000
:10060000084360602878000706D56068296920F4EF
:10061000605040EAC100606000F03CF86168084A40
:10062000C1F30311515CC840064908600020FFF780
:10063000D9FE0020C4E70000002002400010024064
:10064000FC130008E4070020014800687047000020
:10065000E40700200448054900684968044AC1F3DA
:100660000221515CC8407047E4070020001002409E
:100670000C1400080448054900684968044AC1F39D
:10068000C221515CC8407047E407002000100240BE
:100690000C14000810B512A385B00FCB8DE80F0025
:1006A00013A0144B006804905A68134802F00C0120
:1006B00004290FD008290DD1C2F38344D2031DF8B9
:1006C000041009D55A6804ABC2F340429A5CB0FBEF
:1006D000F2F0484305B010BD08484843FAE700006F
:1006E00002030405060708090A0B0C0D0E0F101073
:1006F000010200000010024000127A0000093D00D3
:100700002DE9F84F04460078B94DC00748D0686815
:10071000C0F38100012807D06868C0F38100022877
:1007200009D16868C00306D52868800338D5606899
:1007300000286FD034E06068B0F5803F0BD010B176
:10074000B0F5A02F11D0286820F4803028602868E8
:1007500020F4802002E0286840F48030286060683F
:1007600088B1FFF71FFE064609E0286840F48020A4
:100770002860F0E7FFF716FE801B642875D828680C
:100780008003F7D50CE0FFF70DFE064605E000BF3D
:10079000FFF708FE801B6428F0D828688003F7D490
:1007A0002078944E80074FF001094FF000083BD5A8
:1007B000686810F00C0F07D06868C0F38100022849
:1007C00009D16868C00306D42868800714D5206959
:1007D00001281FD110E02069B0B1C6F80090FFF7E2
:1007E000E1FD074605E000BFFFF7DCFDC01B022866
:1007F000C4D828688007F7D52868616920F0F80018
:1008000040EAC10028600FE0C6F80080FFF7CAFD8B
:10081000074606E0E9E000BFFFF7C4FDC01B022861
:1008200023D828688007F7D4207800072CD5724891
:10083000A169D9B1C0F80090FFF7B4FD074604E004
:10084000FFF7B0FDC01B02280FD8686A8007F7D5F4
:100850006A484FF4FA510068B0FBF1F0009000BF15
:100860000098411E0091FAD20EE080E0C0F80080AE
:10087000FFF798FD074604E0FFF794FDC01B022830
:1008800075D8686A8007F7D42078400760D5E86992
:100890000027C00008D4E86940F08050E861E869AA
:1008A000012700F08050009055480168C90513D415
:1008B0000168834641F480710160FFF773FD824651
:1008C00006E000BFFFF76EFDA0EB0A0064284ED8DB
:1008D000DBF80000C005F5D5E06801280AD008B1B2
:1008E000052813D0286A20F001002862286A20F029
:1008F000040002E0286A40F001002862E06841F24A
:10090000883B98B1FFF74EFD82460BE0286A40F025
:1009100004002862EEE700BFFFF744FDA0EB0A01E8
:1009200059455AD8286A8007F6D50CE0FFF73AFDFA
:10093000824605E0FFF736FDA0EB0A0159454CD889
:10094000286A8007F6D41FB1E86920F08050E8617A
:10095000E06988B36968C1F38101022945D00228A2
:10096000C6F8608004D0FFF71DFD044638E034E08F
:10097000FFF718FD074604E0FFF714FDC01B02282F
:100980002BD828688001F7D4206AB0F5803F05D1C4
:100990006868A16820F4003008436860D4E9080161
:1009A0000843696821F4741108436860C6F86090D0
:1009B000FFF7F8FC044606E015E000BFFFF7F2FC85
:1009C000001B022809D828688001F7D50BE000BF7A
:1009D000FFF7E8FC001B022802D90320BDE8F88FCE
:1009E00028688001F4D40020F8E70120F6E7000031
:1009F000001002400000424280044242E40700200E
:100A0000007000404FF0E0210428086903D020F076
:100A100004000861704740F00400FAE7704710B521
:100A2000401EB0F1807F01D3012010BD4FF0E024C3
:100A300060610F21601700F0F5F90020A061072028
:100A40002061002010BD10B5FFF7E8FF10BD70B5A4
:100A5000040004D094F83D00002510B106E0012008
:100A600070BD84F83C50204600F01CF8022084F849
:100A70003D00204600F048FA2068016921F48041D9
:100A800001612068416921F02A0141612068C16843
:100A900041F40051C1602564012084F83D0000202C
:100AA00070BD000010B50068114986B088421DD1A4
:100AB0001048816941F48041816180690E4C00F4E5
:100AC000804004904FF44070009002200190032079
:100AD000039069462046FFF781FB00212015CDE9F0
:100AE0000001029169462046FFF778FB06B010BD71
:100AF000003801400010024000080140FEE770B5D8
:100B0000054600244FF4FC76295D012000F088F8AA
:100B1000641CB442F8DB70BD70B5054600210120AD
:100B200000F07EF80949002405EB850045182819D6
:100B300010F8A01C012000F073F8641C052CF6D3FB
:100B4000BDE870400021012000F06AB81C120008C6
:100B500070B500244FF4FC750021012000F060F80E
:100B6000641CAC42F8D3BDE870400021084600F098
:100B700057BA00002DE9F04190460C46054600F0BA
:100B80006FF80122204F960231463846FFF704FCE9
:100B90000122D1023846FFF7FFFB0122110338463C
:100BA000FFF7FAFB012291033846FFF7F5FB01221C
:100BB00051033846FFF7F0FB002231463846FFF775
:100BC000EBFB012231463846FFF7E6FB21210020EE
:100BD00000F026F88035E9B2002000F021F8241D4D
:100BE000E1B2002000F01CF808F11000C1B20020B2
:100BF00000F016F82021002000F012F8BDE8F041C6
:100C00000C21002000F00CB8000C014010B5044687
:100C100002E0641CFFF780FF20780028F9D110BDA6
:100C200070B50D460D4C4FF4805108B1012200E023
:100C300000222046FFF7B0FB4FF400660022314649
:100C40002046FFF7A9FB284600F0B8FA31462046B7
:100C5000BDE870400122FFF79FBB0000000C01407F
:100C60002DE9F04F454885B0816941F00801816167
:100C70008069DFF80CB100F008004FF48064049044
:100C8000002221465846FFF787FB670000223946BD
:100C90005846FFF781FB4FF48058002241465846E2
:100CA000FFF77AFB4FF40059002249465846FFF7F8
:100CB00073FB4FF4804A002251465846FFF76CFB05
:100CC000002240212F48FFF767FB660100223146D2
:100CD0005846FFF761FB002202215846FFF75CFBF4
:100CE0000094032401256946584601950394FFF7B3
:100CF00075FACDE90075694658460394FFF76EFA18
:100D0000CDE90085694658460394FFF767FACDE9B7
:100D10000095694658460394FFF760FACDE900A5AF
:100D2000694658460394FFF759FA4020CDE900057B
:100D3000694603941348FFF751FACDE90065694607
:100D400058460394FFF74AFA0220CDE900056946A8
:100D500003945846FFF742FA012240210948FFF761
:100D60001BFB002202215846FFF716FB01223146E9
:100D70005846FFF711FB05B0BDE8F08F00100240A8
:100D8000000C01400008014030B5164885B081696B
:100D900041F020018161816901F0200104918169A4
:100DA00041F008018161816901F0080104918169C4
:100DB00041F00401816180690B4D00F004004FF4A3
:100DC0007C440490002221462846FFF7E5FA0120E2
:100DD000CDE900400220039069462846FFF7FEF95E
:100DE00005B030BD00100240000C01400B4810B5AA
:100DF000094901604FF4E1314160002181600C221A
:100E0000C160C0E904128161C1610162FFF71FFE88
:100E1000002800D0FEE710BD00380140E8070020A0
:100E2000FEE770470907090E002806DA00F00F00F8
:100E300000F1E02080F8141D704700F1E02080F8F8
:100E4000001470477047704710B5FFF7B1FABDE85E
:100E50001040FFF7F8BD30B58FB001210804CDE98F
:100E600000100024029402250491CDE907504FF4AC
:100E7000E01009906846FFF743FC00B1FEE70F2041
:100E8000CDE90A054FF48060CDE90C4002210AA8A3
:100E90000E94FFF72FFB00B1FEE7FFF7D5FB4FF4F1
:100EA0007A71B0FBF1F0FFF7BAFD0420FFF7AAFD5D
:100EB00000221146501EFFF7EBFA0FB030BD0000C4
:100EC0000D48016841F00101016041680B4A114081
:100ED000416001680A4A11400160016821F48021E3
:100EE0000160416821F4FE0141604FF41F018160FF
:100EF0000449C00308607047001002400000FFF87A
:100F0000FFFFF6FE08ED00E02DE9F0410446006821
:100F1000C16821F00C01C160D4E906010843E26810
:100F2000216A1143084321680A6922F47C52104364
:100F300040F4006008612169A06862690843216883
:100F4000CB6841F20C65AB431A431043C86020687C
:100F5000416921F4407141612849206864254FF0BE
:100F60003208884218D1FFF785FB00EBC00101EB86
:100F7000001061684900B0FBF1F0B0FBF5F6FFF737
:100F800079FB00EBC00101EB001061684900B0FB88
:100F9000F1F7FFF76FFB17E0FFF75CFB00EBC00119
:100FA00001EB001061684900B0FBF1F0B0FBF5F611
:100FB000FFF750FB00EBC00101EB00106168490036
:100FC000B0FBF1F7FFF746FB00EBC00101EB0010AF
:100FD00061684900B0FBF1F0B0FBF5F06FF018016B
:100FE000484307EB800108EB0110B0FBF5F02168E6
:100FF00066F31F108860BDE8F081000000380140F2
:10100000FEE702E008C8121F08C1002AFAD17047A3
:101010007047002001E001C1121F002AFBD1704778
:1010200010B50C46C0B240F080010020FFF7F8FD7B
:10103000E0B240F04001BDE810400020FFF7F0BDF5
:1010400070B5FFF785FD2848FFF759FD4FF47A701A
:10105000FFF7B6F8FFF77CFD2448FFF750FD40F698
:10106000B8342046FFF7ACF82148FFF748FD41F2BD
:1010700088352846FFF7A4F81E48FFF740FD2846AC
:10108000FFF79EF80D210020FFF7CAFD2046FFF76D
:1010900097F80C210020FFF7C3FD2046FFF790F8DA
:1010A0002846FFF78DF8FFF753FD00210846FFF7AC
:1010B000B7FF11A0FFF7AAFD01214020FFF7B0FF05
:1010C0000FA0FFF7A3FD03210020FFF7A9FF0DA04C
:1010D000FFF79CFD4FF4FA642046FFF771F82046B5
:1010E000BDE87040FFF76CB800000020F801002058
:1010F000F0030020E8050020496F5453686F70002A
:101100002E766E0043687563206361632062616EB2
:10111000207468616E6820636F6E6700FFF750F996
:10112000FFF799FEFFF730FEFFF760FE0122002176
:101130003020FFF71FFD0A20FFF734F841F2883412
:101140005FEA4405FFF704FD00210846FFF768FF4A
:1011500012A0FFF75BFD01213820FFF761FF11A00E
:10116000FFF754FD03210020FFF75AFF0FA0FFF700
:101170004DFD2046FFF724F8FFF762FF0D21002008
:10118000FFF74EFD2046FFF71BF80C210020FFF76C
:1011900047FD2846FFF714F8D4E700004475794866
:1011A000756E67002E636F6D000000004E6F6B69F7
:1011B00061353131302D4C43440000002DE9F047BA
:1011C000154E05464FF48048002241463046FFF751
:1011D000E3F80122570339463046FFF7DDF8B946F8
:1011E00008244746280601D5012200E0002249468E
:1011F0003046FFF7D1F8012239463046FFF7CCF8E8
:10120000002239463046FFF7C7F86806050E641E0F
:10121000E8D1BDE8F0870000000C014000000000AC
:101220000000005F00000007000700147F147F1417
:10123000242A7F2A1223130864623649552250005B
:1012400005030000001C2241000041221C0014087C
:101250003E081408083E080800503000000808083E
:101260000808006060000020100804023E51494553
:101270003E00427F400042615149462141454B3189
:101280001814127F1027454545393C4A4949300119
:10129000710905033649494936064949291E003670
:1012A00036000000563600000814224100141414C1
:1012B00014140041221408020151090632497941EF
:1012C0003E7E1111117E7F494949363E41414122FE
:1012D0007F4141221C7F494949417F090909013E5B
:1012E0004149497A7F0808087F00417F410020403A
:1012F000413F017F081422417F404040407F020C63
:10130000027F7F0408107F3E4141413E7F09090969
:10131000063E4151215E7F09192946464949493116
:1013200001017F01013F4040403F1F2040201F3FFF
:101330004038403F63140814630708700807615180
:10134000494543007F41410002040810200041410B
:101350007F000402010204404040404000010204BA
:101360000020545454787F4844443838444444203E
:10137000384444487F3854545418087E0901020CFC
:101380005252523E7F0804047800447D40002040C1
:10139000443D007F1028440000417F40007C041839
:1013A00004787C0804047838444444387C141414C9
:1013B00008081414187C7C08040408485454542069
:1013C000043F4440203C4040207C1C2040201C3CEA
:1013D0004030403C44281028440C5050503C446459
:1013E000544C44000836410000007F0000004136A4
:1013F00008001008081008784641467800000000F0
:1014000000000000010203040607080900000000B4
:10141000010203043414000800000020E807000063
:101420004801000890170008E80700204804000061
:10143000121000080119680F80C0E07030181C0CF1
:101440000C060607070301000F2B0707070E061CF3
:101450001C387070E0E0C080900FE0F03CCE673345
:10146000180808C8F8F0E0C01DC0703818153C080E
:10147000F8F0160F2401070F3CF8E05814FCFF0F9A
:101480002C0C7F60012A6101827F49144916636335
:101490007E042407FFF8343FFFF00E180808FC8C88
:1014A0000C015AF8BF0426E0FF1F19D51A70D54E5B
:1014B000070C3860C0DC1FC0E0F0F0F0F80129F73D
:1014C0002680C030180F00082C80C0703C1F070118
:1014D000380F0103060E1C18383173626664C7CFDB
:1014E00001081017C7C7C7676363713038181C0C31
:1014F0000603034F1009070D19FFFF19CDC713E0AD
:10150000E013F8F813FEFEA3FFFF2EC0E02020E05A
:10151000E70714183CE4E43C181DFE828301016CCB
:101520007D017D0329409B0101037581C0C1812993
:10153000EC2DF9FFFFF9083DF8F8FFFF07280C80B4
:101540008C9EF2F29E8C80C060606C39D2E9010101
:10155000104E87CCCC8703012AFFB2200CEEEEECB4
:101560000C0CFF60606EEEEE1912000D2831313167
:1015700079CDCD7901038686037816070C0C07C355
:10158000E33F3FE3C3033F3F3F3E3E3EFEFE3E3E62
:10159000085CBFBF0601052D0F19190F89C11EC0B8
:1015A000E03F3FE0E529080B2FE6C64961147C4087
:1015B00040127C1C7C0810051A10051701017D11D2
:1015C00028444E7C017D55551711157C5454741CCC
:1015D0005C54540B01262AE001199909222801289C
:1015E00066F9FBFBFBF91F80C0E0F0F078012B38B7
:1015F0003C012D7C7C7CFC013ABC0E1AFF013909B0
:10160000051F3C3C3838292C32FF1BF0FE08F3073D
:1016100001580801031FFFFFFEF82801282A3F2D6B
:101620002811E08080818FBFBFFFFCF0E0E0C08028
:101630008080B51C8080C0B85FF8FF7F3F1F0754D3
:10164000291B390101202815F03133E7C707F7F7C7
:10165000F717E7F7B7A7F7F7C7E727B708100BE7BC
:1016600087F3F3030160E0F0B0001220F0F0C0F067
:10167000F001E3233737E7C7F7F7B7E7471E070659
:1016800002030306180E06020606030307070103FA
:101690000607070811190D212C020607151129103C
:1016A0001A022A1A01210134300CA0F0F87C2C0413
:1016B00080C0E070301B80C00A190429F11B307013
:1016C0000A3D1C3C78F80E012C15FFFFE1801D0C33
:1016D0006EFFEA39100E083F7FFFE3C1E0C1E3FF70
:1016E0007F2D082680E1FFFF2A0530C0FFFF3F263F
:1016F00001070F0E1C450303030255AAFFFF7519CE
:10170000111201061A081C0F0F03180AF0F8FC8EBC
:101710000F0606C6E6012FE7E6C6860606081CE6A3
:10172000E6C60B2AC71519015808870606A6E7E77B
:10173000E7200F1C060E1EFEF8E0E533FFAA18088E
:10174000BFFFAA70B870380E19121008FD3870B8B3
:1017500010AEFF1809DDFFFFA870F870FA151CAA7B
:10176000FF80206CA885FF35011C1E070F1F3870F5
:10177000023C713B7302AA710A4A390A5D733970DF
:10178000380A2A3B2C0C14383F1FFA0400A24A04E2
:04000005080000ED02
:00000001FF
